S0130000416C61726D5F436C6F636B2E73726563D9
S11300000C9420010C9449010C9449010C9449016D
S11300100C9449010C9449010C9449010C94490134
S11300200C9449010C9449010C9449010C94490124
S11300300C9449010C9449010C9418060C94490140
S11300400C9449010C9449010C9449010C94490104
S11300500C944B180C9449010C9449010C944901DB
S11300600C9449010C9449010C9449010C944901E4
S11300700C9449010C9449010C9449010C944901D4
S11300800C9449010C9449010C9449010C944901C4
S11300900C9449010C9449010C9449010C944901B4
S11300A00C9449010C9449010C9449010C944901A4
S11300B00C9449010C9449010C9449010C94490194
S11300C00C9449010C9449010C9449010C94490184
S11300D00C9449010C9449010C9449010C94490174
S11300E00C9449010C9449010C9449010C94490164
S11300F00C9449010C9449010C9449010C94490154
S11301000C9449010C9449010C9449010C94490143
S11301100C9449010C9449010C9449010C94490133
S11301200C9449010C9449010C9449010C94490123
S11301300C9449010C9449010C9449010C94490113
S11301400C9449010C9449010C9449010C94490103
S11301500C9449010C9449010C9449010C944901F3
S11301600C9449010C9449010C9449010C944901E3
S11301700C9449010C9449010C9449010C944901D3
S11301800C9449010C9449010C9449010C944901C3
S11301900C9449010C9449010C9449010C944901B3
S11301A00C9449010C9449010C9449010C944901A3
S11301B00C9493180C9449010C9449010C94490132
S11301C00C9449010C9449010C9449010C94490183
S11301D00C9449010C9449010C9449010C94490173
S11301E00C9449010C9449010C9449010C94490163
S11301F00C9449010C9449010C944901D113D11375
S1130200D1131E1406141B14D113D1131E14061477
S11302100C9429150C94321A0C941E140C94A214E8
S11302200C9403040C94D8160C9415130C94061413
S11302300C941B140C94D1130C94E7140C942D0AF5
S113024011241FBECFEFCDBFDFE3DEBF00E00CBF44
S1130250E1E3FDE28AEA90E48193E030F907E0F318
S113026010E2A0E0B0E2E0E5F8E400E00BBF02C079
S113027007900D92AC39B107D9F72DE2ACE9B0E2A1
S113028001C01D92A133B207E1F70E94DD150C9461
S113029026240C940000E0EAF6E080E1828380E208
S11302A0828380E4828380E8828308958091A80613
S11302B084FD0EC08091A2209091A32080362AEE66
S11302C09207E8F401968093A2209093A32017C08C
S11302D08091A2209091A3208B30910548F0C39780
S11302E018F010921F2D07C081E080931F2D03C0CA
S11302F082E080931F2D1092A2201092A32080915F
S1130300A80685FD0EC08091A0209091A120803682
S11303102AEE9207E8F401968093A0209093A120FE
S113032017C08091A0209091A1208B30910548F0B6
S1130330C39718F01092202D07C081E08093202DE0
S113034003C082E08093202D1092A0201092A1205F
S11303508091A80686FD0EC080919E2090919F20DA
S113036080362AEE9207E8F4019680939E209093BB
S11303709F2017C080919E2090919F208B309105E3
S113038048F0C39718F01092212D07C081E08093A4
S1130390212D03C082E08093212D10929E20109283
S11303A09F208091A806882374F080919C209091CE
S11303B09D2080362AEE9207E8F4019680939C20D3
S11303C090939D20089580919C2090919D208B3046
S11303D0910548F0C39718F01092222D07C081E0D0
S11303E08093222D03C082E08093222D10929C20C2
S11303F010929D200895813049F028F0823049F010
S1130400833051F00CC080911F2D08958091202DD0
S113041008958091212D08958091222D089582E0E0
S113042008950F93CF93DF931F92CDB7DEB72FB705
S11304302983F8941BBEFC0108ED04BF6083898105
S11304408FBF0F90DF91CF910F910895611102C07A
S113045090E001C090E2842B892B80935200089590
S11304606F71862B809355000895E0E5F0E090814C
S1130470282F209592239083908189230895682BB7
S113048081E490E00E94110208950F931F93CF938B
S1130490C82F00E410E0F8016081687F682B80E4D5
S11304A090E00E941102F80180818C23CF911F916A
S11304B00F910895FC019081907F692B60830895CA
S11304C0FC019181987F692B61830895FC019681D9
S11304D09C7F692B66830895000088ED84BF81E0CA
S11304E08093790008950E946C020895CF93DF935E
S11304F080E190E00E941304EC01009741F0FC01BC
S11305001192119211921192CF010E943A04CE01DC
S1130510DF91CF9108952F923F924F925F926F9205
S11305207F928F929F92AF92BF92CF92DF92EF927F
S1130530FF920F931F93CF93DF93EC014A015B016A
S1130540622E702E0E94D40B288039804A805B80F2
S113055001110DC081E0B201A101482159216A2194
S11305607B21452B462B472B79F480E00DC081E09D
S1130570B201A101482159216A217B21481559055D
S11305806A057B0509F080E0882381F0662009F480
S113059070C080949094A094B09482209320A4205E
S11305A0B52088829982AA82BB8263C0C114D10417
S11305B0E104F10409F45DC0662029F040E050E054
S11305C060E071E003C040E050E0BA017110746073
S11305D0482959296A297B2997018601CE01049665
S11305E00E945D0E0E94BF0C811102C00E949805FA
S11305F00E949A0F91FD39C0F091A200FF93F87FF9
S1130600F093A200688179818A819B8171100DC069
S113061021E075016401C622D722E822F922CD28FF
S1130620CE28CF2879F420E00DC021E075016401C3
S1130630C622D722E822F922C814D904EA04FB040A
S113064009F020E0222371F0662061F080949094F8
S1130650A094B09486229722A822B92288829982F3
S1130660AA82BB82FF91F093A2001B012C015524A6
S113067002C00E94BF0CC201B101DF91CF911F9152
S11306800F91FF90EF90DF90CF90BF90AF909F902D
S11306908F907F906F905F904F903F902F90089530
S11306A00F931F93F091A200FF93F87FF093A200A1
S11306B0FC01008111812281338140955095609520
S11306C070954023512362237323408351836283B3
S11306D07383FF91F093A200C901B8011F910F9198
S11306E008954F925F926F927F92AF92BF92CF9292
S11306F0DF92EF92FF920F931F93CF93DF93EC015E
S11307006A017B018C01095F1F4F0E94D40BEB85AA
S1130710FC8588819981AA81BB81C82AD92AEA2AC1
S1130720FB2AC882D982EA82FB820E171F0709F4CA
S113073042C0C12CD12C7601A480B58080819181E6
S1130740A281B381AC01BD017727B2FD0FC04880FF
S113075059806A807B80442255226622772221E0D8
S113076045284628472889F420E00FC0488059804E
S11307706A807B80442255226622772221E0441637
S113078055066606770609F020E0222371F0B0FFD3
S113079004C0C42AD52AE62AF72A488159816A81E5
S11307A07B817260CF010E94E50EEA2DFB2D0E17AE
S11307B01F0711F603C0C12CD12C7601C094D0942C
S11307C0E094F09488819981AA81BB81C822D922BE
S11307D0EA22FB22C882D982EA82FB820E94BF0CF1
S11307E0688179818A819B81DF91CF911F910F91DB
S11307F0FF90EF90DF90CF90BF90AF907F906F907D
S11308005F904F9008950E94710308950F931F9372
S113081089019A01AB01BC0183E094E00E94441475
S11308201F910F910895CF93DF93EC010E94D40B95
S11308302091A4203091A520C9018C0F9D1F883BD5
S11308404BE0940758F42817390758F4E901CA55BE
S1130850DF4D8093A4209093A52005C0C0E0D0E094
S113086002C0C0E0D0E00E94BF0CCE01DF91CF9166
S113087008950895FC010396818392834FEF5FEFFF
S1130880BA01438354836583768387839087818702
S1130890928710820895FC01128613860895CF93DF
S11308A0DF939C01FB01DC011196CD91DC91129741
S11308B0C483D5838E819F81868397838E819F8114
S11308C0DC0114966D937C9315976E837F83228746
S11308D03387F90180818F5F8083DF91CF91089501
S11308E00F931F93CF93DF93EB01088119812A8122
S11308F03B810F3F4FEF14072407340721F4FC0119
S1130900A185B28511C0DC01139601C0DF011496E4
S1130910ED91FC9115974081518162817381041797
S113092015072607370790F71496ED91FC91159754
S1130930EC83FD83C683D783AE83BF831496CD93A4
S1130940DC9315978A879B87FC0120812F5F208386
S1130950DF91CF911F910F910895CF93DF93FC0105
S1130960A285B385C481D581868197818E839F8337
S1130970C681D781848195818C839D8311968D91C5
S11309809C911297E817F90731F4868197811196A3
S11309908D939C931297128613868C9181508C931D
S11309A08C91DF91CF910895E0EAF0E08281928109
S11309B0987F92830895CF92DF92EF92FF9231E174
S11309C0FC013083319722E220833197A3E3A08393
S11309D06B01E12CF12C319760833197D0823197F0
S11309E0E082319761E36083319760E860833197F7
S11309F067E860833197108231971082319762E003
S1130A006083319763E06083319764E0608331975A
S1130A1065E06083319766E06083319767E06083C7
S1130A20319768E06083319769E06083319760E1D2
S1130A30608331973083319732E13083319733E1EA
S1130A403083319734E13083319735E13083319706
S1130A5036E13083319737E13083319738E13083A1
S1130A60319739E13083319730E23083319731E285
S1130A70308331972083319723E220836A013197B1
S1130A8040833197D082319726E22083319727E241
S1130A902083319728E22083319729E220833197FC
S1130AA020E320838897FF90EF90DF90CF90089504
S1130AB083EF91E0809326089093270865E080E017
S1130AC098E00E945A0261E080E098E00E94660289
S1130AD0A091CC2CB091CD2C0D900DBE0D900EBEDE
S1130AE0EF91DF91CF91BF91AF919F918F917F91C2
S1130AF06F915F914F913F912F911F910F91FF90B3
S1130B00EF90DF90CF90BF90AF909F908F907F90A9
S1130B106F905F904F903F902F901F900F90FF9198
S1130B20F093A200FF91FFBFFF91089581E0089523
S1130B30FF93FFB7FF93F091A200FF93F87FF09328
S1130B40A2000F921F9211242F923F924F925F9214
S1130B506F927F928F929F92AF92BF92CF92DF92C9
S1130B60EF92FF920F931F932F933F934F935F93B3
S1130B706F937F938F939F93AF93BF93CF93DF93A1
S1130B80EF93A091CC2CB091CD2C0DB60D920EB656
S1130B900D920E945D0DA091CC2CB091CD2C0D90A6
S1130BA00DBE0D900EBEEF91DF91CF91BF91AF912D
S1130BB09F918F917F916F915F914F913F912F9171
S1130BC01F910F91FF90EF90DF90CF90BF90AF9067
S1130BD09F908F907F906F905F904F903F902F9059
S1130BE01F900F90FF91F093A200FF91FFBFFF9120
S1130BF00895CF939091232D892B8093232D909149
S1130C00A000913041F09091A000923021F0909199
S1130C10A000943059F4882349F00E94D404C82FCA
S1130C201092232D0E945D0DC093A200CF910895D0
S1130C30FF93FFB7FF93F091A200FF93F87FF09327
S1130C40A2000F921F9211242F923F924F925F9213
S1130C506F927F928F929F92AF92BF92CF92DF92C8
S1130C60EF92FF920F931F932F933F934F935F93B2
S1130C706F937F938F939F93AF93BF93CF93DF93A0
S1130C80EF93A091CC2CB091CD2C0DB60D920EB655
S1130C900D920E94D404C82F0E94EC0BC093A200B2
S1130CA081E00E94F905A091CC2CB091CD2C0D903F
S1130CB00DBE0D900EBEEF91DF91CF91BF91AF911C
S1130CC09F918F917F916F915F914F913F912F9160
S1130CD01F910F91FF90EF90DF90CF90BF90AF9056
S1130CE09F908F907F906F905F904F903F902F9048
S1130CF01F900F90FF91F093A200FF91FFBFFF910F
S1130D001895F091A200FF93F87FF093A200FC01E4
S1130D10968DFF91F093A20081E0911180E00895F7
S1130D20DC01F091A200FF93F87FF093A2005E969D
S1130D309C915E97FF91F093A20081E05F962C91C5
S1130D40291380E008950F931F93CF93DF93EC0151
S1130D50042F1E8D48A14423B9F1011116C050E09F
S1130D608C819D810E94042128A18C819D81820F08
S1130D70911D8C839D832A813B818217930720F1E7
S1130D80888199818C839D831FC050E08E819F81CF
S1130D900E94042188A190E09195819591092E816A
S1130DA03F81280F391F2E833F834881598124179F
S1130DB0350730F42A813B81820F931F8E839F83F2
S1130DC0023011F4111111501F5F1E8F80E0DF916A
S1130DD0CF911F910F910895FC0140A14423A9F0E4
S1130DE050E026813781240F351F26833783828183
S1130DF093812817390720F0808191818683978316
S1130E00CB01668177810E9404210895EF92FF92BD
S1130E100F931F93CF938C01F091A200FF93F87F5F
S1130E20F093A200FC01C2A11C16ACF483898111C9
S1130E3006C011C0F8018389811105C00CC0780176
S1130E40F3E1EF0EF11CC7010E94A30E81110E9471
S1130E50880FC15079F78FEFF80182A3FF91F093C7
S1130E60A200F091A200FF93F87FF093A200F80192
S1130E70C1A11C16ACF48085811106C011C0F80113
S1130E808085811105C00CC07801F8E0EF0EF11CDB
S1130E90C7010E94A30E81110E94880FC15079F7E7
S1130EA08FEFF80181A3FF91F093A200CF911F91DE
S1130EB00F91FF90EF900895CF93DF93EC01F091A1
S1130EC0A200FF93F87FF093A2004881598128A1E2
S1130ED030E07F8D729FC001739F900D1124FA0141
S1130EE0E80FF91FEA83FB831E8E4C835D83821B0C
S1130EF0930B840F951F8E839F838FEF89A38AA3FF
S1130F0061110CC08885882389F0CE0108960E945F
S1130F10A30E882359F00E94980508C0CE010896B4
S1130F200E943A04CE0143960E943A04FF91F09342
S1130F30A20081E0DF91CF910895FF920F931F9358
S1130F40CF93DF93082F162FF42E6623C9F0869FC4
S1130F50C001112485960E941304EC01009749F402
S1130F6016C00F8F18A361E0CE010E945C07FCA29B
S1130F700EC0859688839983F4CFC883D983F1CF33
S1130F8085E290E00E941304EC01892BB1F7CE01B5
S1130F90DF91CF911F910F91FF900895AF92BF926F
S1130FA0CF92DF92EF92FF920F931F93CF93DF9331
S1130FB0CDB7DEB72997CDBFDEBF7C015B012E83A1
S1130FC03F834887598710E06C0188E0C80ED11C24
S1130FD0F091A200FF93F87FF093A200F701968DA1
S1130FE0878D981710F00230D1F4402FB501C70156
S1130FF00E94A306F7019389992349F0C7014396F8
S11310000E94A30E882331F00E94980503C0811129
S11310100E949805FF91F093A20081E057C08E8151
S11310209F81A885B985892B8A2B8B2B29F4FF9165
S1131030F093A20080E04AC0111105C0CE010196D0
S11310400E94190F11E0FF91F093A2000E94D40BAB
S1131050F091A200FF93F87FF093A200F70181A121
S11310608F3F09F411A2F70182A18F3F09F412A264
S1131070FF91F093A200BE016A5F7F4FCE010196FB
S11310800E942A0F81111CC0C7010E949006882368
S113109089F04E815F8168857985C6010E94450E7D
S11310A0C7010E9406070E94BF0C811191CF0E94C4
S11310B098058ECFC7010E9406070E94BF0C88CFF7
S11310C0C7010E9406070E94BF0C80E02996CDBF8D
S11310D0DEBFDF91CF911F910F91FF90EF90DF90D2
S11310E0CF90BF90AF900895AF92BF92CF92DF920E
S11310F0FF920F931F93CF93DF93EC016B015A017F
S1131100022F0E94D404F82E9E8D8F8D981710F014
S11311100230E1F41AA1402FB601CE010E94A306C9
S11311201F3F81F48B89882399F0CE0143960E9456
S1131130A30E882379F0A114B10471F081E0F501C4
S113114080830BC01F5F1AA381E007C080E005C045
S113115081E003C081E001C081E0F092A200DF9150
S1131160CF911F910F91FF90DF90CF90BF90AF90E0
S11311700895AF92BF92CF92DF92EF92FF920F93B6
S11311801F93CF93DF93CDB7DEB72997CDBFDEBFD3
S11311908C015B012E833F8348875987E12C6C01C6
S11311A083E1C80ED11CF091A200FF93F87FF09365
S11311B0A200F801F68CFF20B1F0B501C8010E942D
S11311C0EC06FA94F801F68E8085882339F0C8017C
S11311D008960E94A30E81110E949805FF91F09336
S11311E0A20081E05EC08E819F81A885B985892B8C
S11311F08A2B8B2B29F4FF91F093A20080E051C03D
S1131200E11006C0CE0101960E94190FEE24E3946A
S1131210FF91F093A2000E94D40BF091A200FF93DF
S1131220F87FF093A200F80181A18F3F09F411A285
S1131230F80182A18F3F09F412A2FF91F093A2005A
S1131240BE016A5F7F4FCE0101960E942A0F811171
S11312501CC0C8010E948106882389F04E815F81E9
S113126068857985C6010E94450EC8010E9406075B
S11312700E94BF0C811197CF0E94980594CFC8019A
S11312800E9406070E94BF0C8ECFC8010E94060769
S11312900E94BF0CC8010E948106882309F483CFF1
S11312A080E02996CDBFDEBFDF91CF911F910F91D2
S11312B0FF90EF90DF90CF90BF90AF900895F091A2
S11312C0A200FF93F87FF093A200FC01868DFF91AA
S11312D0F093A2000895CF93DF93EC01F091A20064
S11312E0FF93F87FF093A20089A18F3F09F419A21C
S11312F08AA18F3F09F41AA2FF91F093A2008E8D68
S1131300811104C0CE0143960E94820ECE010E9438
S11313100607DF91CF910895E091882CF091892CF4
S1131320808181110CC08FEF9FEFDC018093612CD1
S11313309093622CA093632CB093642C0895E09155
S1131340882CF091892C0780F085E02D0084F185AC
S1131350E02D82819381A481B5818093612C909347
S1131360622CA093632CB093642C08958F929F9267
S1131370AF92BF92CF92DF92EF92FF92CF936B0125
S11313807C01C42F80906B2C90906C2CA0906D2CC1
S1131390B0906E2C8091CC2C9091CD2C02960E9412
S11313A0AD048FEFC816D806E806F80669F4CC2316
S11313B059F06091CC2C7091CD2C6E5F7F4F80E7FB
S11313C09CE20E944F043FC0C80CD91CEA1CFB1CC1
S11313D0E091CC2CF091CD2CC282D382E482F582B0
S11313E0C814D904EA04FB0468F46091CC2C70910D
S11313F0CD2C8091862C9091872C6E5F7F4F0E941C
S1131400700421C06091CC2C7091CD2C8091882CDB
S11314109091892C6E5F7F4F0E9470048091612CA3
S11314209091622CA091632CB091642CC816D906BB
S1131430EA06FB0640F4C092612CD092622CE09242
S1131440632CF092642CCF91FF90EF90DF90CF90BB
S1131450BF90AF909F908F900895C0EADCE288819E
S1131460823010F00E9498050E94CA15F8CF4F925E
S11314705F926F927F928F929F92AF92BF92CF9220
S1131480DF92EF92FF920F93CF93DF934C016B01A6
S11314905A012901CA010E9413043C01892B09F451
S11314A0EAC08CE290E00E941304EC01892BB1F0B5
S11314B06B8E7C8EA50165EA70E0C3010E940D214C
S11314C021E0A21AB1088B8D9C8DA80EB91ED601FD
S11314D08C918D8F8C91811105C018C0C3010E941D
S11314E03904C9C0AE01425E5F4FF6013196B8E0DF
S11314F0CB0ED11CCF012191DA012D93AD01DC017A
S11315008C91882319F0EC15FD05A1F71CA2043079
S113151008F003E00A8F6E01B2E0CB0ED11CC601C5
S11315200E944B04CE010E960E944B04CA87DB87AF
S113153084E090E0A0E0B0E0801B9109A109B1092A
S11315408E879F87A88BB98BCE8BDF8B1FA218A6A3
S113155019A61AA61BA6A201B401C5010E94DB04A8
S113156088839983E114F10419F0F701C083D183CE
S1131570F091A200FF93F87FF093A20080916F2C6A
S11315808F5F80936F2C8091CC2C9091CD2C892BE4
S1131590A9F5C093CC2CD093CD2C80916F2C8130A5
S11315A0E9F580EA9CE20E943A048BEA9CE20E94FC
S11315B03A0486EB9CE20E943A0481EC9CE20E948D
S11315C03A0485E99CE20E943A048AE89CE20E947B
S11315D03A048BE79CE20E943A0480E79CE20E9472
S11315E03A0485E99CE28093882C9093892C8AE8BC
S11315F09CE28093862C9093872C10C08091692C58
S113160081110CC0E091CC2CF091CD2C928D8A8D5F
S1131610891720F0C093CC2CD093CD2C8091652CCD
S11316208F5F8093652C8DA38A8D90916A2C981777
S113163010F480936A2CFBE08F9FC0011124B60143
S11316408056934D0E944F04FF91F093A200809125
S1131650692C882361F0E091CC2CF091CD2C928DF3
S11316608A8D981730F40E94980581E005C081E0C6
S113167003C081E001C08FEFDF91CF910F91FF9004
S1131680EF90DF90CF90BF90AF909F908F907F901E
S11316906F905F904F9008950F931F93CF93DF93B4
S11316A0009709F441C02091CC2C3091CD2C8217A5
S11316B0930709F439C0F091A200FF93F87FF093E7
S11316C0A200FC012485358520573C4251F5FC01DC
S11316D0208D318DFCE22B373F0719F1232B09F5BF
S11316E0EC018C010E5F1F4FC8010E94AD048A8D6E
S11316F090916A2C981710F480936A2C2BE0829FA7
S1131700C0011124B8018056934D0E944F04E0910A
S1131710CC2CF091CD2C9A8D828D981710F00E94CC
S11317209805FF91F093A200DF91CF911F910F9143
S11317300895EF92FF920F930F2EFFE5EF2EFCE238
S1131740FF2EF02D00E020E030E048EC50E060E0B7
S113175070E28DE29AE00E94370A813009F50E9416
S113176002128130E9F4E0EAF0E08281887F82832A
S11317708FEF9FEFDC018093612C9093622CA093F8
S1131780632CB093642C81E08093692C10926B2CB1
S113179010926C2C10926D2C10926E2C0E94580595
S11317A00F91FF90EF90089580915E2C8F5F80934E
S11317B05E2C0895F091A200FF93F87FF093A200AD
S11317C060916B2C70916C2C80916D2C90916E2C8F
S11317D0FF91F093A2000895AF92BF92CF92DF924F
S11317E0EF92FF920F931F93CF93DF9380915E2C20
S11317F08111ADC0C0906B2CD0906C2CE0906D2CFE
S1131800F0906E2C8FEFC81AD80AE80AF80AC09232
S11318106B2CD0926C2CE0926D2CF0926E2CC11437
S1131820D104E104F104B9F48091882C9091892CBD
S11318302091862C3091872C2093882C3093892CEE
S11318408093862C9093872C8091662C8F5F809355
S1131850662C0E948C098091612C9091622CA0913D
S1131860632CB091642CC816D906EA06FB0610F462
S1131870B12C5CC0B12C0F2EFBE0AF2EF02DE0910B
S1131880882CF091892C808181110CC08FEF9FEFFF
S1131890DC018093612C9093622CA093632CB09311
S11318A0642C44C0E091882CF091892C0780F08549
S11318B0E02DC085D1858A819B81AC81BD81C8160C
S11318C0D906EA06FB0648F48093612C9093622CB7
S11318D0A093632CB093642C29C08E010E5F1F4F1C
S11318E0C8010E94AD04888D998D892B21F0CE0109
S11318F00E960E94AD048A8D90916A2C981710F46C
S113190080936A2CA89EC0011124B8018056934D7F
S11319100E944F04E091CC2CF091CD2C9A8D828DB5
S1131920981708F4ACCFBB24B394A9CFE091CC2C86
S1131930F091CD2CE28D8BE0E89FF0011124E0566C
S1131940F34D8081823048F0BB24B39406C080916B
S1131950682C8F5F8093682CB12C8091672C88232E
S113196011F0BB24B3948B2DDF91CF911F910F9174
S1131970FF90EF90DF90CF90BF90AF900895CF92FB
S1131980DF92EF92FF920F931F93CF93DF93F09127
S1131990A200FF93F87FF093A20080915E2C815007
S11319A080935E2C80915E2C81115CC080916F2CA1
S11319B081112CC05AC0D7011796ED91FC9118974C
S11319C0C085D185CE010E960E94AD048E010E5FB6
S11319D01F4FC8010E94AD048A8D90916A2C9817FC
S11319E010F480936A2CD89EC0011124B80180564B
S11319F0934D0E944F04E091CC2CF091CD2C9A8D04
S1131A00828D981788F0C092672C0EC0C0E0D0E099
S1131A100F2EFBE7EF2EFCE2FF2EF02D0F2EFBE046
S1131A20DF2EF02DCC24C394F70180818111C3CF24
S1131A30CD2B11F00E948C09C091682CCC2351F05D
S1131A40D1E00E94EC0B8111D093672CC150C9F7EF
S1131A501092682C8091672C882331F00E9498059D
S1131A6081E003C080E001C080E0FF91F093A20018
S1131A70DF91CF911F910F91FF90EF90DF90CF9066
S1131A800895CF92DF92EF92FF926B017C01672B56
S1131A90682B692B59F00E94D40B40E0C701B601B2
S1131AA00E94B6090E94BF0C811102C00E949805D1
S1131AB0FF90EF90DF90CF90089580915E2C882363
S1131AC021F081E08093672C08951092672CE091B7
S1131AD0CC2CF091CD2C038CF48DE02D8081918160
S1131AE0A281B381853A954AA54AB54AD9F484813D
S1131AF09581A681B781853A954AA54AB54A91F45C
S1131B0080859185A285B385853A954AA54AB54ACB
S1131B1049F484859585A685B785853A954AA54A6D
S1131B20B54A61F06091CC2C7091CD2C8091CC2C75
S1131B309091CD2C635E7F4F0E94730280916A2C3A
S1131B40282F30E09BE0899FF0011124E056F34DEB
S1131B50908191110EC04BE08150282F30E0429FBC
S1131B60F001439FF00D1124E056F34D9081992329
S1131B7099F39BE0929FA001939F500D1124DA01E9
S1131B80A056B34D1196ED91FC9112970480F58106
S1131B90E02D1196ED93FC9312974D55534DE41798
S1131BA0F50729F444815581FD01418352839BE06B
S1131BB0929FF001939FF00D1124E056F34D0180A4
S1131BC0F281E02D208531852093CC2C3093CD2CCF
S1131BD080936A2C08950F931F93CF93DF93EC01A6
S1131BE0F091A200FF93F87FF093A200892B21F4D7
S1131BF0C091CC2CD091CD2C8E010E5F1F4FC8010B
S1131C000E94AD04888D998D892B21F0CE010E960A
S1131C100E94AD04B80180E79CE20E944F048BA5AA
S1131C20813009F41BA6FF91F093A2008091692CE6
S1131C30882359F0F091A200FF93F87FF093A2005B
S1131C400E948C09FF91F093A2008091CC2C90917A
S1131C50CD2CC817D907A1F48091692C882319F0D9
S1131C600E9498050DC09091702C80916F2C981350
S1131C7005C01092CC2C1092CD2C02C00E945D0D98
S1131C80DF91CF911F910F910895CF92DF92EF9240
S1131C90FF926A017B016091CC2C7091CD2C625F24
S1131CA07F4F0E94700441E0C701B6010E94B6094B
S1131CB0FF90EF90DF90CF900895CF92DF92EF9254
S1131CC0FF920F931F9368017901E091CC2CF0915E
S1131CD0CD2C706846875787608B718B6091CC2CB4
S1131CE07091CD2C625F7F4F0E944F0441E0C70189
S1131CF0B6010E94B6091F910F91FF90EF90DF90FB
S1131D00CF900895CF92DF92EF92FF92CF936A0122
S1131D107B01C22F6091CC2C7091CD2C625F7F4FE0
S1131D200E944F04CC2321F0CC24CA94DC2C7601ED
S1131D304C2FC701B6010E94B609CF91FF90EF90D6
S1131D40DF90CF9008950F931F93CF93DF93DC011F
S1131D501796ED91FC911897C085D1858E01025F8D
S1131D601F4FC8010E94AD0480915E2C811116C0E2
S1131D700C501109C8010E94AD048A8D90916A2CFF
S1131D80981710F480936A2CBBE08B9FC001112438
S1131D90B8018056934D0E944F0405C0B8018BE7EB
S1131DA09CE20E944F04E091CC2CF091CD2C9A8DB2
S1131DB0828D891720F481E08093672C01C080E034
S1131DC0DF91CF911F910F9108950F931F93CF939C
S1131DD0DF937068FC014083518362837383C08501
S1131DE0D1850E94AD048E010E5F1F4FC8010E9471
S1131DF0AD048A8D90916A2C981710F480936A2C04
S1131E00FBE08F9FC0011124B8018056934D0E94BE
S1131E104F04E091CC2CF091CD2C9A8D828D8917B2
S1131E2018F481E08093672CDF91CF911F910F917B
S1131E3008952091662CFC01208340916B2C5091D5
S1131E406C2C60916D2C70916E2C41835283638352
S1131E5074830895CF92DF92EF92FF920F931F93B2
S1131E60CF93DF93DB01F091A200FF93F87FF0930F
S1131E70A20040916B2C50916C2C60916D2C709150
S1131E806E2C0D911D912D913C9113970F3FCFEF27
S1131E901C072C073C0769F1FC01C180D280E38058
S1131EA0F480E091662CEC01F881FE1729F04C15C2
S1131EB05D056E057F05F8F44C195D096E097F090F
S1131EC0401751076207730768F4FD01041B150BE3
S1131ED0260B370B00831183228333830E94190F4F
S1131EE080E00AC01D921D921D921C92139781E0FE
S1131EF003C080E001C081E0FF91F093A200DF9174
S1131F00CF911F910F91FF90EF90DF90CF900895A4
S1131F1081E08093672C08958091692C882331F0A7
S1131F2080915E2C882321F080E0089581E008955B
S1131F3082E00895CF92DF92EF92FF92E091CC2C51
S1131F40F091CD2C6685778580899189E091CC2CA0
S1131F50F091CD2CA091CC2CB091CD2C5A962C91F3
S1131F60C12CD12C76016894C2F8C21AD108E108B8
S1131F70F108C686D786E08AF18AFF90EF90DF9059
S1131F80CF9008954F925F926F927F928F929F921B
S1131F90AF92BF92CF92DF92EF92FF920F931F9373
S1131FA049015A01F091A200FF93F87FF093A20037
S1131FB0E091CC2CF091CD2C23A5223041F1E0917D
S1131FC0CC2CF091CD2C47A050A461A472A4DC01C8
S1131FD0CB0180959095A095B09584219521A6215B
S1131FE0B72187A390A7A1A7B2A7E091CC2CF09129
S1131FF0CD2C81E083A7C114D104E104F10439F0AC
S113200041E0C701B6010E94B6090E949805FF91FC
S1132010F093A200F091A200FF93F87FF093A20046
S11320200115110569F0E091CC2CF091CD2C87A11C
S113203090A5A1A5B2A5F80180839183A283B3835F
S1132040E091CC2CF091CD2C83A58230B1F4E091B9
S1132050CC2CF091CD2C87A190A5A1A5B2A58094FC
S11320609094A094B09488229922AA22BB2287A299
S113207090A6A1A6B2A681E001C080E0E091CC2C9C
S1132080F091CD2C13A6FF91F093A2001F910F9114
S1132090FF90EF90DF90CF90BF90AF909F908F9084
S11320A07F906F905F904F900895CF92DF92EF9260
S11320B0FF920F931F93CF93DF93DC01F091A20063
S11320C0FF93F87FF093A2000115110559F097963C
S11320D0CD90DD90ED90FC909A97F801C082D1826A
S11320E0E282F3829B968C919B9792E09B969C93C1
S11320F09B972230D1F018F4213031F036C02330D0
S113210029F1243051F131C097960D911D912D91F3
S11321103C919A97402B512B622B732B97964D939E
S11321205D936D937C939A9720C097964D915D91A2
S11321306D917C919A974F5F5F4F6F4F7F4F97964A
S11321404D935D936D937C939A970FC097964D939F
S11321505D936D937C939A9708C0823059F197965A
S11321604D935D936D937C939A97813029F5ED019E
S11321708D010E5F1F4FC8010E94AD048A8D90919E
S11321806A2C981710F480936A2CFBE08F9FC0018F
S11321901124B8018056934D0E944F04E091CC2C39
S11321A0F091CD2C9A8D828D891740F40E94980568
S11321B081E005C080E003C081E001C081E0FF91BF
S11321C0F093A200DF91CF911F910F91FF90EF90B8
S11321D0DF90CF9008958F929F92AF92BF92CF924B
S11321E0DF92EF92FF920F931F93CF93DF93EC0153
S11321F04A015B01D22E0E94D404C82E0115110598
S113220049F08FA198A5A9A5BAA5F8018083918367
S1132210A283B3838BA592E09BA7D916D1F09D1519
S113222020F0F1E0DF1641F02CC023E0D216F1F0EB
S113223094E0D91601F125C04FA158A569A57AA546
S1132240842A952AA62AB72A8FA298A6A9A6BAA64E
S113225018C04FA158A569A57AA54F5F5F4F6F4F6E
S11322607F4F4FA358A769A77AA70BC08FA298A640
S1132270A9A6BAA606C08230D9F18FA298A6A9A6AB
S1132280BAA68130B9F580915E2C811117C08E01F8
S11322900E5F1F4FC8010E94AD048A8D90916A2C75
S11322A0981710F480936A2CEBE08E9FC0011124E0
S11322B0B8018056934D0E944F0407C0BE01625F6F
S11322C07F4F8BE79CE20E944F04E091CC2CF0916D
S11322D0CD2C9A8D828D891778F4E114F10421F0C4
S11322E081E0F701808309C081E08093672C05C0F9
S11322F080E003C081E001C081E0C092A200DF91D0
S1132300CF911F910F91FF90EF90DF90CF90BF90EE
S1132310AF909F908F900895CF92DF92EF92FF92AB
S11323200F931F93FC0142835383648375838287D5
S113233093870417150726073707C0F00C191D09E2
S11323402E093F0986859785A089B1890817190741
S11323502A073B0700F5BF016E5F7F4F8091D62CA3
S11323609091D72C0E94700480E018C00C151D05B4
S11323702E053F0528F44C155D056E057F0568F4B0
S1132380BF016E5F7F4F8091D82C9091D92C0E9411
S1132390700480E003C081E001C081E01F910F91CF
S11323A0FF90EF90DF90CF900895F091A200FF93FB
S11323B0F87FF093A2008091D42C9091D52C892B96
S11323C0E9F485EE9CE20E943A048AED9CE20E94C4
S11323D03A0485EE9CE28093D82C9093D92C8AED14
S11323E09CE28093D62C9093D72C40E069E085E062
S11323F00E949D078093D42C9093D52CFF91F09349
S1132400A2000895EF92FF920F930E94D51180913C
S1132410D42C9091D52C892B91F00F2EF2EDEF2E28
S1132420FCE2FF2EF02D03E020E030E048EC50E029
S113243065E070E285E193E10E94370A01C080E023
S11324400F91FF90EF9008958F929F92AF92BF9259
S1132450CF92DF92EF92FF920F931F93CF93DF936C
S1132460CDB7DEB72997CDBFDEBFE091D42CF09174
S1132470D52C309789F169832A833B834C835D8310
S11324808E839F836630FCF40E948C0F823069F443
S113249000E0A7019601BE016F5F7F4F8091D42CAD
S11324A09091D52C0E94CE0718C000E020E030E0C7
S11324B0A901BE016F5F7F4F8091D42C9091D52CE0
S11324C00E94CE070AC020E0A801BE016F5F7F4FC3
S11324D0CF010E94740801C080E02996CDBFDEBF01
S11324E0DF91CF911F910F91FF90EF90DF90CF90EC
S11324F0BF90AF909F908F9008952F923F924F92EC
S11325005F926F927F928F929F92AF92BF92CF927F
S1132510DF92EF92FF920F931F93CF93DF931C01EF
S11325200E94DA0B2B013C018091CE2C9091CF2C90
S1132530A091D02CB091D12C481659066A067B067E
S113254008F054C03CC00780F085E02D8080918065
S1132550A280B380C085D1858E010E5F1F4FC80154
S11325600E94AD04ED89FE89CE0119958A898130D6
S113257031F58E859F85A889B989880D991DAA1D75
S1132580BB1D88169906AA06BB0670F48A839B8332
S1132590AC83BD83CA87DB87B8018091D82C909126
S11325A0D92C0E9470040BC0C12CD12C760100E000
S11325B010E0A501940160E0CE010E942412E09194
S11325C0D82CF091D92C80818111BDCF8091D62C4B
S11325D09091D72C8093D82C9093D92CE093D62C1F
S11325E0F093D72C81E0F101808302C0F1011082C5
S11325F04092CE2C5092CF2C6092D02C7092D12C41
S1132600C301B201DF91CF911F910F91FF90EF9021
S1132610DF90CF90BF90AF909F908F907F906F90FE
S11326205F904F903F902F900895CF93DF93CDB755
S1132630DEB72E97CDBFDEBFCE0101961C01A82EBA
S1132640B32CE091D82CF091D92C8081882309F403
S113265003C10780F085E02D408051806280738043
S11326600E94D40BC1010E947D126B877C878D87E9
S11326709E87898181115EC08B859C85AD85BE85D1
S113268084159505A605B705E8F10E94BF0CE091F5
S1132690D82CF091D92C0780F085E02D808491848A
S11326A0C40102960E94AD04D40152968C915297B3
S11326B0813001F51E964D915D916D917C915197FC
S11326C0440D551D661D771D730162010B851C8524
S11326D02D853E85C4010E948C11882359F0C12C9C
S11326E0D12C760100E010E0A301920160E0C40166
S11326F00E942412D4015596ED91FC915697C40181
S113270019959CC020E0B301A2018B859C85AD8501
S1132710BE85481B590B6A0B7B0B8091D42C90917E
S1132720D52C0E946B090E94BF0C811187C00E94A6
S1132730980584C00E94BF0C81C0898188236CF4F1
S11327404E815F8168857985EA81FB818C819D81D9
S11327501995898188230CF471C08E809F80D401DF
S11327601C968D919C911D97892B21F0C401029692
S11327700E94AD04CE010A960E947D128B019C0139
S11327808981082E000C990BAA0BBB0B8A3091058A
S113279008F054C0FC018827E250FF4F8F4F0C947F
S11327A0FC20CA80DB80EC80FD80F40146855785DF
S11327B0608971894C0D5D1D6E1D7F1DC4010E94D1
S11327C08C118823D9F1D4015596ED91FC9156973B
S11327D0C4011995F4018289813081F54A815B81B4
S11327E06C817D8186859785A089B1899A01AB0129
S11327F0280F391F4A1F5B1FC12CD12C760100E022
S113280010E060E0C4010E94241218C04A815B8178
S11328106C817D81D4011E964D935D936D937C9361
S11328205197400F511F621F731F68017901C40142
S11328300E948C1103C0C4010E94390420E030E0DE
S1132840A9016A2D7B2D8091D42C9091D52C0E94C6
S1132850B908811172CFF5CE0E94D40BC1010E9438
S11328607D126B877C878D879E878981811162CFDA
S1132870E091D62CF091D72C808121E0811120E0C9
S1132880412C512C32013FCF0F931F93CF93DF93F1
S1132890CDB7DEB72997CDBFDEBFEEEFE9838A83DC
S11328A09B836C837D832E833F834887598720E0F5
S11328B0A801BE016F5F7F4F8091D42C9091D52CDD
S11328C00E9474082996CDBFDEBFDF91CF911F917E
S11328D00F910895E0E5F0E080818160808381813B
S11328E080FFFDCF80E00E9445028EE10E94350208
S11328F060E080E00E943F0243E060E080E40E94E8
S11329002602E0E5F0E0808188608083818183FF96
S1132910FDCF64E080EC0E943002E0E5F0E08081CD
S11329208061808360E080E00E943F02E0E5F0E0A7
S1132930818184FFFDCF84E00E94450287E00E94EC
S113294035020895CF93DF931F92CDB7DEB7198276
S1132950B12C28C08981B80E83E68B1510F58091BF
S1132960F62C8F5F8C3320F48093F62CB12C19C095
S11329701092F62C8091F52C8F5F8C3320F4809389
S1132980F52CB12C0EC01092F52C8091F42C8F5F95
S1132990883120F48093F42CB12C03C01092F42CD1
S11329A0B12C19820F2EF2E3CF2ED12CE12CF12C75
S11329B0F02D8E010F5F1F4F2FEF3FEFA90160E055
S11329C070E0CB010E94C20F813061F7C3CFCF9377
S11329D0DF9300D01F92CDB7DEB7E0EAF6E081E0E6
S11329E08183848319821A821B821C820F2EF0EA4F
S11329F0AF2EF6E0BF2EF02D992493940F2EF5E020
S1132A00CF2ED12CE12CF12CF02D8E010F5F1F4F16
S1132A102FEF3FEFA90160E070E0CB010E94C20FED
S1132A2089819A81AB81BC81892B8A2B8B2B31F3D1
S1132A30F501968264E670E080E090E00E94410D2A
S1132A40F501958264E670E080E090E00E94410D1B
S1132A50D5CF0E944B0168EB7BE080E090E00E94C0
S1132A60410D0E94560180E00E94FB01813069F40F
S1132A7000E010E021E041E050E060E070E080918F
S1132A80242D9091252D0E94551081E00E94FB0178
S1132A90813069F400E010E021E042E050E060E0C1
S1132AA070E08091242D9091252D0E94551082E094
S1132AB00E94FB01813069F400E010E021E044E071
S1132AC050E060E070E08091242D9091252D0E94CB
S1132AD0551083E00E94FB01813069F400E010E0AE
S1132AE021E048E050E060E070E08091242D909176
S1132AF0252D0E94551080E00E94FB0181110DC01C
S1132B0000E010E021E040E150E060E070E08091FE
S1132B10242D9091252D0E94551081E00E94FB01E7
S1132B2081110DC000E010E021E040E250E060E0DF
S1132B3070E08091242D9091252D0E94551082E003
S1132B400E94FB0181110DC000E010E021E040E48F
S1132B5050E060E070E08091242D9091252D0E943A
S1132B60551083E00E94FB0181110DC000E010E0CC
S1132B7021E040E850E060E070E08091242D9091E5
S1132B80252D0E9455106AE070E080E090E00E94DC
S1132B90410D67CF0895E0E4F8E08081856080838B
S1132BA086818160868387E893E186A397A3E0EA20
S1132BB0F0E08281816082830895EF92FF920F9307
S1132BC00E946A140E9494190E94CB1578940F2EC7
S1132BD0FAE2EF2EFDE2FF2EF02D01E020E030E0DE
S1132BE042ED50E06DE070E287EE94E10E94370A16
S1132BF00F2EF8E2EF2EFDE2FF2EF02D20E030E064
S1132C0048EC50E066E170E289E295E10E94370AFF
S1132C100F2EF6E2EF2EFDE2FF2EF02D02E020E073
S1132C2030E048EC50E061E270E282EA94E10E9414
S1132C30370A0F2EF4E2EF2EFDE2FF2EF02D01E015
S1132C4020E030E048EC50E06BE270E288ED96E181
S1132C500E94370A0E94990B80E090E00F91FF9048
S1132C60EF9008950F931F93823009F43FC028F426
S1132C70882361F0813011F198C0843009F466C072
S1132C8008F44CC0853009F479C08FC060FF0AC0D5
S1132C90FA0180818B3310F48F5F01C080E0FA0168
S1132CA0808383C064FF81C0FA018081882311F08E
S1132CB0815001C08BE3FA01808377C060FF0AC0B2
S1132CC0FA018081823310F4865F01C08253FA01D5
S1132CD080836BC064FF69C0FA0180818A3010F080
S1132CE08A5001C08E5CFA0180835FC060FF0AC015
S1132CF0F90180818B3310F48F5F01C080E0F9010A
S1132D00808353C064FF51C0F9018081882311F08E
S1132D10815001C08BE3F901808347C060FF0AC082
S1132D20F9018081823310F4865F01C08253F90176
S1132D3080833BC064FF39C0F90180818A3010F080
S1132D408A5001C08E5CF90180832FC060FF0AC0E5
S1132D50F8018081873110F48F5F01C080E0F801B1
S1132D60808323C064FF21C0F8018081882311F08F
S1132D70815001C087E1F801808317C060FF0AC059
S1132D80F80180818E3010F4865F01C08E50F80106
S1132D9080830BC064FF09C0F80180818A3010F081
S1132DA08A5001C0825FF80180831F910F910895BA
S1132DB0CF93DF93CDB7DEB72D97CDBFDEBF19829A
S1132DC01D86512C1C861B866894662461F8772422
S1132DD073940F2EF5E48F2EF0E29F2EF02D5E01FA
S1132DE022E0A20EB11C0F2EF0E62F2EF0E23F2EB1
S1132DF0F02D0F2EF3E04F2EF02D0F2EF5E0CF2EF9
S1132E00D12CE12CF12CF02D8E010F5F1F4F2FEFF1
S1132E103FEFA90160E070E0CB010E94C20F8091F6
S1132E20F02C813009F45AC020F0823009F479C0C2
S1132E3095C09091F42C8091F12C98130EC0909130
S1132E40F52C8091F22C981308C09091F62C809167
S1132E50F32C981302C0511004C03D85332399F01C
S1132E6001C07D8600E010E0272D41E050E060E0E5
S1132E7070E080912A2D90912B2D0E94551089810C
S1132E8081FD11C01BC000E010E0272D40E050E0A0
S1132E90BA0180912A2D90912B2D0E945510898181
S1132EA081FD04C00BC09D85911106C0972D511062
S1132EB090E0592E1D8602C01D86512C88234CF4A7
S1132EC07092F02C8091262D9091272D0E94EB0D6D
S1132ED047C086FF45C06092F02C42C004EF1CE25C
S1132EE025EF3CE246EF5CE269818B850E94321655
S1132EF0898181FF0EC02B852F5F2B87263080F1BF
S1132F001092F02C8091262D9091272D0E944C0B2D
S1132F1027C085FF25C03B85332311F131503B8702
S1132F201FC001EF1CE222EF3CE243EF5CE2698147
S1132F308C850E943216898181FF08C08C858F5F41
S1132F408C87863068F01092F02C0AC085FF08C088
S1132F509C85992329F091509C8702C01092F02CF3
S1132F600E94101B29E330E23F932F931F921F927C
S1132F701F921F920E941B1B8091F62C1F928F930D
S1132F808091F52C1F928F938091F42C1F928F9334
S1132F909F928F92BF92AF920E943921BF92AF92BB
S1132FA024E530E23F932F931F921F921F927F924A
S1132FB00E941B1B8091F32C1F928F938091F22C03
S1132FC01F928F938091F12C1F928F939F928F92D7
S1132FD0BF92AF920E943921CDBFDEBFBF92AF92A4
S1132FE03F922F921F921F921F926F920E941B1B5F
S1132FF08091F02CCDBFDEBF813089F48CE690E265
S11330009F938F931F921F921F927F920E941B1B6C
S11330100F900F900F900F900F900F9012C082306E
S113302081F48CE690E29F938F931F921F921F92DC
S11330306F920E941B1B0F900F900F900F900F9098
S11330400F90552089F08FE690E29F938F931F9203
S11330501F921F924F920E941B1B0F900F900F9074
S11330600F900F900F9010C08FE790E29F938F9373
S11330701F921F921F924F920E941B1B0F900F9042
S11330800F900F900F900F9068EC70E080E090E04C
S11330900E94410DB2CE1F920F920FB60F921124CF
S11330A00BB60F92EF92FF920F931F932F933F93C0
S11330B04F935F936F937F938F939F93AF93BF933C
S11330C0EF93FF93CF93DF931F92CDB7DEB71982AF
S11330D040912C2D50E060E070E0CE0101967C011F
S11330E000E010E022E08091262D9091272D0E948F
S11330F0EB100F90DF91CF91FF91EF91BF91AF91C2
S11331009F918F917F916F915F914F913F912F91FB
S11331101F910F91FF90EF900F900BBE0F900FBE79
S11331200F901F9018951F920F920FB60F921124B3
S11331300BB60F922F933F934F935F936F937F93AD
S11331408F939F93AF93BF93EF93FF93CF93DF93AB
S11331501F92CDB7DEB719829E012F5F3F4F41E02A
S113316050E060E070E080912F2D9091302D0E940E
S1133170060460E080E09BE00E945A021092060B75
S11331800F90DF91CF91FF91EF91BF91AF919F91FC
S11331908F917F916F915F914F913F912F910F90FC
S11331A00BBE0F900FBE0F901F901895CF92DF9219
S11331B0EF92FF920F936B017C0182E0C816D10459
S11331C0E104F10408F44EC0E0E0FBE081E0868312
S11331D010A211A260E080E09BE00E9460028EEFEA
S11331E0C8168FEFD806E104F10470F4F694E7945E
S11331F0D794C794C092260BD092270B65E080E049
S11332009BE00E945A0219C080E4C81682E4D806E2
S11332108FE0E806F10488F4689414F8F694E794CF
S1133220D794C7941694D1F7C092260BD092270B4B
S113323067E080E09BE00E945A020F2EF4EFCF2E4D
S1133240DD24D394E12CF12CF02D00E021E041E0C9
S113325050E060E070E080912F2D9091302D0E941D
S11332608B0211C0E0E0FBE081E0868310A211A292
S113327060E080E09BE00E946002C12CD12C7601CA
S11332806894C1F8B3CF0F91FF90EF90DF90CF9087
S113329008958295807FE0E0F6E09481282F2F60E6
S11332A0922394839481892B848308951F93CF93CD
S11332B0DF93C0E6D6E014E01D8361E070E080E0B7
S11332C090E00E94D6181E83DF91CF911F9108953C
S11332D0CF93C82F82958F700E944919E0E6F6E0DB
S11332E081E0868382E086830E9456198C2F8F703A
S11332F00E9449190E945619CF910895CF93C82F5F
S113330082958F700E944919E0E6F6E081E085839A
S113331082E086830E9456198C2F8F700E9449196F
S11333200E945619CF910895EF92FF920F93E0E017
S1133330F6E080E1818380E2818380E4818380E818
S11333408183A0E6B6E081E011968C93119782E028
S113335011968C93119784E011968C931197848124
S11333608F70848314968C911497887F14968C9311
S113337040E066E188E00E949D0780932D2D9093A4
S11333802E2D0E94760280932F2D9093302DE12CC8
S1133390F12C01E020E030E04EE551E060E970E21C
S11333A082E39AE10E94370A0F91FF90EF9008950B
S11333B08130910579F01CF4892B39F019C08230E1
S11333C0910569F0039781F013C080E8860F0E948D
S11333D068190EC080EC860F0E94681909C084E940
S11333E0860F0E94681904C084ED860F0E94681934
S11333F067E270E080E090E00E94D61808950E9491
S11334007E196BE270E080E090E00E94D618089587
S11334100F931F93CF93DF93FC01808181110AC026
S113342011C08991882371F00E94FF190C171D07A0
S1133430C1F708C08F010E94FF19E80121960C5EB4
S11334401F4FEFCFDF91CF911F910F910895CF932D
S1133450DF93EA010E94D819CE010E94081ADF9175
S1133460CF910895CF93DF93CDB7DEB7C656D10978
S1133470CDBFDEBF5E0141E5A40EB11CFE01319655
S113348020E208C02193E817F907E1F7FC01A81628
S1133490B90619F0CF014496F5CF60E47CE980E0E9
S11334A090E00E94D61883E00E94491968E873E10D
S11334B080E090E00E94D6180E94561960EA70E0FD
S11334C080E090E00E94D6180E94561960EA70E0ED
S11334D080E090E00E94D6180E94561960EA70E0DD
S11334E080E090E00E94D61882E00E9449190E9470
S11334F0561988E20E94681980E10E9468198CE0DC
S11335000E94681986E00E94681910E26E0151E574
S1133510C50ED11C0F2EF4E14F2EF02D0F2EF6E127
S11335208F2E912CF02D5C2C0D2D68EC70E080E03A
S113353090E00E94410D40E050E0BA0180912F2DAF
S11335409091302D0E945003672B682B692B09F44E
S113355049C042E050E060E070E080912F2D9091EE
S1133560302D0E945003FE01319608C01193E817D4
S1133570F907E1F7FC018A159B05A1F1CF014496F7
S1133580F5CF2FEF3FEFA901652D702F80912D2DE1
S113359090912E2D0E94B908882321F1F6012181F2
S11335A0822F90E04497F4F482818823D9F09081AB
S11335B030E0D901499EA00DB11D112441E050E035
S11335C04C0F5D1FA40FB51F3396A401421B530B70
S11335D09A012C0D3D1D8D93E217F30719F081918B
S11335E08111F9CF80912D2D90912E2D0E945F098C
S11335F08111C7CFCE0101967C01612C712CA701EA
S113360060E070E0C3010E94271A9FEF691A790AEB
S1133610E4E1EE0EF11CF4E06F16710481F785CF3E
S113362042E050E060E070E080912F2D9091302DC9
S11336300E94710308952F923F924F925F926F926E
S11336407F928F929F92AF92BF92CF92DF92EF922E
S1133650FF920F931F93CF93DF93CDB7DEB76D9790
S1133660CDBFDEBF2BA92B8FAFA9B8AD7E0139E347
S1133670E30EF11C2FE13DE2EBE0FDE21192E217D3
S1133680F307E1F70F2EF7EFAF2EFCE2BF2EF02D7C
S11336902BE03DE2F5011192E217F307E1F7812CEB
S11336A0912C0F2EFBE0CF2EFDE2DF2EF02DFCC27D
S11336B0853209F0E8C22D0182E0480E511C1196B2
S11336C08C91853609F4DBC138F48336C1F008F0F7
S11336D048C0853251F0E7C28337F9F0883709F4DE
S11336E068C0863609F0DFC28CC0F401E950F34D9E
S11336F095E29083AFEF8A1A9A0AD201D5C2F401F7
S1133700E950F34DD7018C918083BFEF8B1A9B0A4C
S1133710F70132967F01D201C7C2A7014E5F5F4F06
S1133720D7018D919C919C01B401F401E950F34DB2
S113373000E010E006C0D901FD909D01F1920F5FF9
S11337401F4FDC010D900020E9F71197A81BB90B5E
S11337500A171B0780F34D01860E971E7A01D201CA
S1133760A3C287010E5F1F4F4AE0B601F7018081B3
S113377091810E9414219401D401A950B34D4BE0CE
S11337805DE280E090E005C0FA016191AF016D93C4
S11337900196F60101900020E9F73197EB50FD42C4
S11337A08E179F0788F34F01820E931E7801D20172
S11337B07BC287010E5F1F4F40E1B601D7018D9197
S11337C09C910E9414219401F401E950F34D4BE0C3
S11337D05DE280E090E005C0DA016D91AD01619396
S11337E00196D6010D900020E9F71197AB50BD4228
S11337F08A179B0788F34D01820E931E7801D2012C
S113380053C21701B4E02B0E311CD7018D919D9149
S11338100D90BC91A02D8F8B988FA98FBA8F20E02B
S113382030E0A901BC01CD010E942B1F811105C00C
S113383020E3F6012083118204C120E030E0A901D5
S11338406F89788D898D9A8D0E942B1F88239CF413
S1133850EDE2D601EC938F89988DA98DBA8DB0587D
S11338608F8B988FA98FBA8F0F2EFCE06F2EFDE2FD
S11338707F2EF02D01C0360120E030E040E85FE308
S11338806F89788D898D9A8D0E948A2088230CF403
S113389044C200E010E020E030E040E251E46F89EF
S11338A0788D898D9A8D0E94301F6F8B788F898FC8
S11338B09A8F0F5F1F4F20E030E040E85FE30E94E3
S11338C08A20882344F72DEC3CEC4CEC5DE36F89B3
S11338D0788D898D9A8D0E942B1F88231CF01AC025
S11338E000E010E020E030E040E251E46F89788DA0
S11338F0898D9A8D0E948F206F8B788F898F9A8FF4
S1133900015011092DEC3CEC4CEC5DE30E942B1FA3
S1133910882344F310161106ACF57301D301A00FEC
S1133920B11FAC8FBD8F3D016F89788D898D9A8DC4
S113393020E030E040E251E40E948F206F8B788FCA
S1133940898F9A8F0E94A21F20E3260FF7012193EB
S11339507F01072E000C880B990B0E94DA1F9B0134
S1133960AC016F89788D898D9A8D0E94BE1EE614F4
S1133970F704F1F66F8B788F898F9A8F01151105F3
S113398089F4DBC1C801E0E3D301EC937301F2E0F5
S1133990EF0EF11C2EE211962C9399236CF000E0AB
S11339A010E01FC0EC8CFD8C3FEFE31AF30AEEE24B
S11339B0AC8DBD8DEC9312C000E010E0FFEFEF1A68
S11339C0FF0AF701319720E3208301970F5F1F4F10
S11339D0992324F4043011058CF331C0043011050B
S11339E074F5370184E090E0801B910BE80EF91E1A
S11339F087016F89788D898D9A8D20E030E040E2CF
S1133A0051E40E948F206F8B788F898F9A8F0E9448
S1133A10A21F20E3260FD3012D933D01072E000C96
S1133A20880B990B0E94DA1F9B01AC016F89788D7A
S1133A30898D9A8D0E94BE1E60167106F1F6F701FB
S1133A4010829401F401E950F34D4BE05DE280E013
S1133A5090E005C0DA016D91AD0161930196D60144
S1133A600D900020E9F71197AB50BD428A179B07D0
S1133A7088F34D01820E931E7101D20115C1170105
S1133A80B4E02B0E311CD7018D919D910D90BC910A
S1133A90A02D8F8B988FA98FBA8F20E030E0A901D9
S1133AA0BC01CD010E942B1F811105C020E3F6014A
S1133AB020831182CAC020E030E0A9016F89788D8B
S1133AC0898D9A8D0E942B1F88239CF4EDE2D601E8
S1133AD0EC938F89988DA98DBA8DB0588F8B988F60
S1133AE0A98FBA8F0F2EFCE06F2EFDE27F2EF02DF2
S1133AF001C0360120E030E040E85FE36F89788D53
S1133B00898D9A8D0E948A208823DCF000E010E0E1
S1133B1020E030E040E251E46F89788D898D9A8D00
S1133B200E94301F6F8B788F898F9A8F0F5F1F4F82
S1133B3020E030E040E85FE30E948A20882344F7D5
S1133B4002C000E010E02DEC3CEC4CEC5DE36F892E
S1133B50788D898D9A8D0E942B1F8823C4F420E0D0
S1133B6030E040E251E46F89788D898D9A8D0E940E
S1133B708F206F8B788F898F9A8F015011092DECCC
S1133B803CEC4CEC5DE30E942B1F882344F320E0C3
S1133B9030E040E251E46F89788D898D9A8D0E94DE
S1133BA08F206F8B788F898F9A8F0E94A21F20E3BA
S1133BB0260FD3012C93072E000C880B990B0E941F
S1133BC0DA1F9B01AC016F89788D898D9A8D0E94D3
S1133BD0BE1EF8013197EC8FFD8FEEE2D3011196F2
S1133BE0EC9383010E5F1F4F7301F6E0EF0EF11C9F
S1133BF020E030E040E251E40E948F206F8B788F08
S1133C00898F9A8F0E94A21F20E3260FD8012D933B
S1133C108D01072E000C880B990B0E94DA1F9B0163
S1133C20AC016F89788D898D9A8D0E94BE1E0E1508
S1133C301F05F1F625E6F3012683B301695F7F4F83
S1133C404AE08C8D9D8D0E9414219401F401E95069
S1133C50F34D4BE05DE280E090E005C0DA016D9148
S1133C60AD0161930196D6010D900020E9F71197FB
S1133C70AB50BD428A179B0788F34D01820E931EF9
S1133C807101D20111C08A3029F0F401E950F34DD9
S1133C90808304C0F401E950F34D10821196EFEFD4
S1133CA08E1A9E0A01C0D2018C91811101CD8DA979
S1133CB09EA9880D991D44973CF084E190E04C0145
S1133CC02DA93EA9821A930AFE013396CE01479686
S1133CD0DF011D92A817B907E1F73B8D39838DA940
S1133CE08A83181419045CF4CE01880D991D039677
S1133CF0D5012D915D0121938E179F07C9F700E02F
S1133D002FEF3FEFA901BE016F5F7F4F80912D2DF3
S1133D1090912E2D0E94CE071BC02DEC3CEC4CEC58
S1133D205DE36F89788D898D9A8D0E942B1F88237E
S1133D300CF4D6CD80E090E026CE20E3EC8DFD8D12
S1133D4020837F0132E0E30EF11C8EE2818346CEB4
S1133D506D96CDBFDEBFDF91CF911F910F91FF9084
S1133D60EF90DF90CF90BF90AF909F908F907F9017
S1133D706F905F904F903F902F9008955058BB27BD
S1133D80AA270E94D61E0C9450200E94422038F08C
S1133D900E94492020F039F49F3F19F426F40C9432
S1133DA03F200EF4E095E7FB0C943920E92F0E94A4
S1133DB0612058F3BA17620773078407950720F048
S1133DC079F4A6F50C9483200EF4E0950B2EBA2F0B
S1133DD0A02D0B01B90190010C01CA01A00111240D
S1133DE0FF27591B99F0593F50F4503E68F11A16B9
S1133DF0F040A22F232F342F4427585FF3CF46954A
S1133E0037952795A795F0405395C9F77EF41F166B
S1133E10BA0B620B730B840BBAF09150A1F0FF0F35
S1133E20BB1F661F771F881FC2F70EC0BA0F621F21
S1133E30731F841F48F4879577956795B795F79511
S1133E409E3F08F0B0CF9395880F08F09927EE0FA6
S1133E509795879508950E94152008F481E00895A8
S1133E600E94441F0C9450200E94492058F00E9444
S1133E70422040F029F45F3F29F00C94392051117D
S1133E800C9484200C943F200E94612068F39923B1
S1133E90B1F3552391F3951B550BBB27AA27621742
S1133EA07307840738F09F5F5F4F220F331F441F4F
S1133EB0AA1FA9F335D00E2E3AF0E0E832D0915083
S1133EC05040E695001CCAF72BD0FE2F29D0660F70
S1133ED0771F881FBB1F261737074807AB07B0E8B3
S1133EE009F0BB0B802DBF01FF2793585F4F3AF0B9
S1133EF09E3F510578F00C9439200C9484205F3F48
S1133F00E4F3983ED4F3869577956795B795F7953E
S1133F109F5FC9F7880F911D9695879597F9089526
S1133F20E1E0660F771F881FBB1F621773078407C2
S1133F30BA0720F0621B730B840BBA0BEE1F88F7D1
S1133F40E09508950E94A91F6894B1110C948420EF
S1133F5008950E94692088F09F5798F0B92F9927F7
S1133F60B751B0F0E1F0660F771F881F991F1AF060
S1133F70BA95C9F714C0B13091F00E948320B1E022
S1133F8008950C948320672F782F8827B85F39F021
S1133F90B93FCCF3869577956795B395D9F73EF4F9
S1133FA090958095709561957F4F8F4F9F4F0895A1
S1133FB0E89409C097FB3EF49095809570956195BF
S1133FC07F4F8F4F9F4F9923A9F0F92F96E9BB2775
S1133FD09395F695879577956795B795F111F8CFF1
S1133FE0FAF4BB0F11F460FF1BC06F5F7F4F8F4F5C
S1133FF09F4F16C0882311F096E911C0772321F052
S11340009EE8872F762F05C0662371F096E8862FE9
S113401070E060E02AF09A95660F771F881FDAF740
S1134020880F9695879597F90895990F0008550F6D
S1134030AA0BE0E8FEEF16161706E807F907C0F02A
S113404012161306E407F50798F0621B730B840B32
S1134050950B39F40A2661F0232B242B252B21F40C
S113406008950A2609F4A140A6958FEF811D811DAC
S1134070089597F99F6780E870E060E008959FEFE6
S113408080EC089500240A941616170618060906EB
S1134090089500240A9412161306140605060895BA
S11340A0092E0394000C11F4882352F0BB0F40F442
S11340B0BF2B11F460FF04C06F5F7F4F8F4F9F4F82
S11340C0089557FD9058440F551F59F05F3F71F004
S11340D04795880F97FB991F61F09F3F79F087956B
S11340E00895121613061406551FF2CF4695F1DFF4
S11340F008C0161617061806991FF1CF8695710584
S1134100610508940895E894BB2766277727CB01B7
S113411097F908950E94152008F48FEF08950E94DE
S1134120A2200C9450200E94422038F00E94492082
S113413020F0952311F00C9439200C943F20112485
S11341400C9484200E94612070F3959FC1F3950F15
S113415050E0551F629FF001729FBB27F00DB11D07
S1134160639FAA27F00DB11DAA1F649F6627B00D97
S1134170A11D661F829F2227B00DA11D621F739F80
S1134180B00DA11D621F839FA00D611D221F749F8E
S11341903327A00D611D231F849F600D211D822FD5
S11341A0762F6A2F11249F5750409AF0F1F08823FC
S11341B04AF0EE0FFF1FBB1F661F771F881F915029
S11341C05040A9F79E3F510580F00C9439200C947F
S11341D084205F3FE4F3983ED4F386957795679502
S11341E0B795F795E7959F5FC1F7FE2B880F911D53
S11341F09695879597F90895EE0FFF1F881F8BBF3B
S11342000790F691E02D1994FB01DC0102C00190A6
S11342100D9241505040D8F70895DC0101C06D93D0
S113422041505040E0F70895BB274A3031F49923B8
S113423022F4BDE2909581959F4F0C942021BB27D9
S1134240FB015527AA27880F991FAA1FA41710F04E
S1134250A41B83955051B9F7A05DAA3308F0A95D5A
S1134260A193009779F7B111B1931192CB010C94FA
S11342707C230F931F93CF93DF93CDB7DEB72E9795
S1134280CDBFDEBF0E891F8986E08C8309831A8324
S11342908FEF9FE78D839E83AE01465E5F4F688DEF
S11342A0798DCE0101960E946221EF81F885E00F9D
S11342B0F11F10822E96CDBFDEBFDF91CF911F91EB
S11342C00F9108952F923F924F925F926F927F9237
S11342D08F929F92AF92BF92CF92DF92EF92FF9212
S11342E00F931F93CF93DF93CDB7DEB72B97CDBF3B
S11342F0DEBF6C017B018A01FC0116821782838177
S113430081FFCCC1CE0101963C01F6019381F701F6
S113431093FD859193FF81917F01882309F4BAC1AC
S1134320853239F493FD859193FF81917F01853224
S113433029F4B60190E00E948C23E7CF912C212C24
S1134340312CFFE1F315D8F08B3279F038F4803258
S113435079F08332A1F4232D20611DC08D3261F0E8
S1134360803369F4232D216016C0832D8260382E9A
S1134370E32DE4603E2E2AC0F32DF8601DC037FC07
S11343802DC020ED280F2A3040F08E32B9F436FCCF
S113439081C1232D2064322E19C036FE06C08AE066
S11343A0989E200D1124922E11C0EAE02E9E200D1D
S11343B01124222EF32DF0623F2E08C08C3621F4F6
S11343C0832D8068382E02C0883641F4F70193FDAE
S11343D0859193FF81917F018111B3CF982F9F7DA8
S11343E09554933028F40C5F1F4F9FE399830DC0BD
S11343F0833631F0833771F0833509F059C021C019
S1134400F801808189830E5F1F4F88248394912C47
S1134410530113C02801F2E04F0E511CF801A08093
S1134420B18036FE03C0692D70E002C06FEF7FEFEC
S1134430C5010E9471234C018201F32DFF773F2EA9
S113444016C0280122E0420E511CF801A080B18060
S113445036FE03C0692D70E002C06FEF7FEFC50127
S11344600E9466234C01F32DF0683F2E820133FC39
S11344701BC0822D90E088169906B0F4B60180E244
S113448090E00E948C232A94F4CFF50137FC8591A7
S113449037FE81915F01B60190E00E948C232110C8
S11344A02A9421E0821A91088114910471F7E8C0DA
S11344B0843611F0893641F5F80137FE07C0608172
S11344C07181828193810C5F1F4F08C0608171816B
S11344D0072E000C880B990B0E5F1F4FF32DFF76F0
S11344E03F2E97FF09C090958095709561957F4FF9
S11344F08F4F9F4FF0683F2E2AE030E0A3010E94C7
S1134500C823882E861845C0853731F4232D2F7E85
S1134510B22E2AE030E025C0932D997FB92E8F3634
S1134520C1F018F4883579F0B5C0803719F08837B0
S113453021F0B0C0E92FE061BE2EB4FE0DC0FB2D0A
S1134540F460BF2E09C034FE0AC0292F2660B22EA3
S113455006C028E030E005C020E130E002C020E1E0
S113456032E0F801B7FE07C06081718182819381D6
S11345700C5F1F4F06C06081718180E090E00E5F88
S11345801F4FA3010E94C823882E8618FB2DFF7796
S11345903F2E36FE0DC0232D2E7FA22E891458F4F3
S11345A034FE0BC032FC09C0832D8E7EA82E05C0BC
S11345B0B82CA32C03C0B82C01C0B92CA4FE0FC086
S11345C0FE01E80DF11D8081803321F49A2D997E3E
S11345D0A92E09C0A2FE06C0B394B39404C08A2DC8
S11345E0867809F0B394A3FC11C0A0FE06C0B214EF
S11345F088F4280C922C9B180EC0B21460F4B601F7
S113460080E290E00E948C23B394F7CFB21418F4A4
S11346102B1802C0982C212CA4FE10C0B60180E3F4
S113462090E00E948C23A2FE17C0A1FC03C088E77F
S113463090E002C088E590E0B6010CC08A2D86782F
S113464059F0A1FE02C08BE201C080E2A7FC8DE21A
S1134650B60190E00E948C23891438F4B60180E3FB
S113466090E00E948C239A94F7CF8A94F301E80D8A
S1134670F11D8081B60190E00E948C238110F5CF5A
S1134680222009F442CEB60180E290E00E948C23FD
S11346902A94F6CFF6018681978102C08FEF9FEFAF
S11346A02B96CDBFDEBFDF91CF911F910F91FF906D
S11346B0EF90DF90CF90BF90AF909F908F907F90BE
S11346C06F905F904F903F902F900895FC0105905C
S11346D0615070400110D8F7809590958E0F9F1F00
S11346E00895FC016150704001900110D8F7809545
S11346F090958E0F9F1F0895DC01FC01672F719127
S11347007723E1F7329704C07C916D9370836291B3
S1134710AE17BF07C8F308950F931F93CF93DF938A
S1134720FB01238121FD03C08FEF9FEF2CC022FFEB
S113473016C046815781248135814217530744F4BA
S1134740A081B1819D012F5F3F4F208331838C93E2
S1134750268137812F5F3F4F2683378314C08B0117
S1134760EC01FB010084F185E02D1995892BE1F61C
S1134770D80116968D919C911797019616968D9354
S11347809C931797CE01DF91CF911F910F910895BC
S1134790FA01AA27283051F1203181F1E8946F936E
S11347A06E7F6E5F7F4F8F4F9F4FAF4FB1E03ED014
S11347B0B4E03CD0670F781F891F9A1FA11D680FB2
S11347C0791F8A1F911DA11D6A0F711D811D911DE5
S11347D0A11D20D009F468943F912AE0269F11245A
S11347E03019305D3193DEF6CF010895462F4770BE
S11347F0405D4193B3E00FD0C9F7F6CF462F4F7019
S1134800405D4A3318F0495D31FD4052419302D076
S1134810A9F7EACFB4E0A69597958795779567951C
S1134820BA95C9F700976105710508959B01AC011C
S11348300A2E06945795479537952795BA95C9F743
S1134840620F731F841F951FA01D0895F894FFCF56
S113485049444C4500546D7220537663006C656482
S1134860426C696E6B00427574746F6E5461736B45
S113487000486561727462656174005573657249BC
S11348806E7465726661636500416C61726D20438C
S11348906C6F636B00253032643A253032643A25FC
S11348A030326400202054696D653A20202573005D
S11348B02020416C61726D3A20257300203E002057
S11348C020416C61726D20656E61626C65640020CC
S11348D020416C61726D2064697361626C6564006F
S10F48E0646973705570646174650000B5
S9030000FC
